:1000000002C1000030C4000003C40000D6C30000D9
:10001000A9C300007CC300004FC3000022C300003E
:10002000F5C200001EC100001CC100001AC1000082
:1000300018C1000016C1000014C1000012C1000068
:1000400010C100000EC100000CC100000AC1000078
:1000500008C1000006C1000004C100008DC20000FC
:1000600000C1000054C4000029C40000FAC0000010
:10007000F8C00000F6C00000F4C00000F2C00000AC
:10008000F0C00000EEC00000ECC00000EAC00000BC
:10009000E8C00000E6C00000E4C00000E2C00000CC
:1000A000E0C00000DEC00000DCC00000DAC00000DC
:1000B000D8C00000D6C00000D4C00000D2C00000EC
:1000C000D0C00000CEC00000CCC00000CAC00000FC
:1000D000C8C00000C6C00000C4C00000C2C000000C
:1000E000C0C0000000002200250028002B002E00C8
:1000F0003100340002010000050108010B0100007D
:100100002100240027002A002D00300033000101C7
:100110000000040107010A0100002000230026005E
:1001200029002C002F00320000010000030106010D
:10013000090105050505070508080808020202026D
:100140000A0A080804040404010101010101010173
:100150000303030303030303040707070C0C0C0C3E
:100160000C0C0C0C02020202060606060606060627
:100170000B0B0B0B0B0B0B0B0102102020080810B4
:100180002040102040800201020108040201010207
:1001900004081020408080402010080402018004E0
:1001A000020180402010080402010804020101023B
:1001B0000408102040800102040810204080000044
:1001C0000A0B02090C0D0E080703040100000000D1
:1001D000000000000000000000000000000000001F
:1001E00000000000000000000000121110000000DC
:1001F00000000000000000000000000000000000FF
:1002000000000000BD0411241FBECFEFD1E2DEBF0D
:10021000CDBF00E00CBF12E0A0E0B2E0E0E2FEE003
:1002200000E00BBF02C007900D92A632B107D9F7CC
:1002300022E0A6E2B2E001C01D92A53DB207E1F7BF
:1002400011E0C3E0D1E000E005C021970109802F53
:10025000FE01DCD5C230D10780E00807B1F7CED36C
:10026000DDC5CECE3FB7F89480912C0290912D023F
:10027000A0912E02B0912F0226B5A89B05C02F3F5A
:1002800019F00196A11DB11D3FBFBA2FA92F982FBC
:100290008827BC01CD01620F711D811D911D42E0B7
:1002A000660F771F881F991F4A95D1F708958F927F
:1002B0009F92AF92BF92CF92DF92EF92FF924B014B
:1002C0005C01D0DF6B017C01CDDF6C197D098E09EB
:1002D0009F09683E734081059105B0F321E0821AC1
:1002E0009108A108B10888EEC80E83E0D81EE11C71
:1002F000F11C81149104A104B10431F7FF90EF9037
:10030000DF90CF90BF90AF909F908F90089581E045
:100310008093260208950895AF92BF92CF92DF9204
:10032000EF92FF920F931F93CF93DF936C017B01AA
:100330008B01040F151FEB015E01AE18BF08C0173B
:10034000D10759F06991D601ED91FC910190F081AE
:10035000E02DC6011995892B79F7C501DF91CF9161
:100360001F910F91FF90EF90DF90CF90BF90AF90D3
:100370000895FC01538D448D252F30E0842F90E0AB
:10038000821B930B541710F0CF9608950197089590
:10039000FC01918D828D981761F0A28DAE0FBF2F59
:1003A000B11D5D968C91928D9F5F9F73928F90E0AF
:1003B00008958FEF9FEF0895FC01918D828D98171E
:1003C00031F0828DE80FF11D858D90E008958FEF5B
:1003D0009FEF0895FC01918D228D892F90E0805C24
:1003E0009F4F821B91098F739927089580E392E0B4
:1003F000F1DF21E0892B09F420E0822F0895FC0130
:10040000A48DA80FB92FB11DA35ABF4F2C91848D75
:1004100090E001968F739927848FA689B7892C93D2
:10042000A089B1898C91837080648C93938D848D25
:10043000981306C00288F389E02D80818F7D808328
:100440000895EF92FF920F931F93CF93DF93EC01E8
:1004500081E0888F9B8D8C8D98131AC0E889F9896B
:10046000808185FF15C09FB7F894EE89FF8960836E
:10047000E889F98980818370806480839FBF81E0EF
:1004800090E0DF91CF911F910F91FF90EF90089531
:10049000F62E0B8D10E00F5F1F4F0F731127E02E0C
:1004A0008C8D8E110BC00FB607FCFACFE889F98945
:1004B000808185FFF5CFCE01A2DFF2CFEB8DEC0F6F
:1004C000FD2FF11DE35AFF4FF0829FB7F8940B8F79
:1004D000EA89FB8980818062D0CFCF93DF93EC01E2
:1004E000888D8823B1F0AA89BB89E889F9898C9124
:1004F00085FD03C0808186FD0CC00FB607FCF7CFD9
:100500008C9185FFF2CF808185FFEDCFCE0177DF23
:10051000EACFDF91CF91089580E090E0892B21F020
:1005200065DF81110E94000080E090E0892B49F096
:1005300080E090E0892B29F00E94000081110E9448
:10054000000080E090E0892B49F080E090E0892B6A
:1005500029F00E94000081110E94000080E090E0DC
:10056000892B49F080E090E0892B29F00E9400005F
:1005700081110C94000008951F920F920FB60F92F4
:1005800011242F933F938F939F93AF93BF938091A9
:10059000280290912902A0912A02B0912B02309159
:1005A000270223E0230F2D3758F50196A11DB11D19
:1005B000209327028093280290932902A0932A0275
:1005C000B0932B0280912C0290912D02A0912E02CB
:1005D000B0912F020196A11DB11D80932C02909322
:1005E0002D02A0932E02B0932F02BF91AF919F9145
:1005F0008F913F912F910F900FBE0F901F901895E4
:1006000026E8230F0296A11DB11DD2CF1F920F9293
:100610000FB60F9211240BB60F922F933F934F9367
:100620005F936F937F938F939F93AF93BF93EF935A
:10063000FF93E0910E02F0910F021995FF91EF9157
:10064000BF91AF919F918F917F916F915F914F91EA
:100650003F912F910F900BBE0F900FBE0F901F90E8
:1006600018951F920F920FB60F9211240BB60F928E
:100670002F933F934F935F936F937F938F939F93AA
:10068000AF93BF93EF93FF93E0910C02F0910D02B3
:100690001995FF91EF91BF91AF919F918F917F91AC
:1006A0006F915F914F913F912F910F900BBE0F90E3
:1006B0000FBE0F901F9018951F920F920FB60F92BA
:1006C00011240BB60F922F933F934F935F936F9329
:1006D0007F938F939F93AF93BF93EF93FF93E0919B
:1006E0000202F09103021995FF91EF91BF91AF9132
:1006F0009F918F917F916F915F914F913F912F913A
:100700000F900BBE0F900FBE0F901F9018951F9269
:100710000F920FB60F9211240BB60F922F933F93A7
:100720004F935F936F937F938F939F93AF93BF93F9
:10073000EF93FF93E0910002F09101021995FF9170
:10074000EF91BF91AF919F918F917F916F915F9149
:100750004F913F912F910F900BBE0F900FBE0F90B6
:100760001F9018951F920F920FB60F9211240BB67F
:100770000F922F933F934F935F936F937F938F933A
:100780009F93AF93BF93EF93FF93E0910A02F09191
:100790000B021995FF91EF91BF91AF919F918F91AE
:1007A0007F916F915F914F913F912F910F900BBE71
:1007B0000F900FBE0F901F9018951F920F920FB6BB
:1007C0000F9211240BB60F922F933F934F935F9389
:1007D0006F937F938F939F93AF93BF93EF93FF9309
:1007E000E0910802F09109021995FF91EF91BF91F4
:1007F000AF919F918F917F916F915F914F913F91B9
:100800002F910F900BBE0F900FBE0F901F90189559
:100810001F920F920FB60F9211240BB60F922F93C7
:100820003F934F935F936F937F938F939F93AF9378
:10083000BF93EF93FF93E0910602F09107021995A1
:10084000FF91EF91BF91AF919F918F917F916F91A8
:100850005F914F913F912F910F900BBE0F900FBE64
:100860000F901F9018951F920F920FB60F921124A0
:100870000BB60F922F933F934F935F936F937F939A
:100880008F939F93AF93BF93EF93FF93E0910402F5
:10089000F09105021995FF91EF91BF91AF919F9152
:1008A0008F917F916F915F914F913F912F910F9019
:1008B0000BBE0F900FBE0F901F9018951F920F92B6
:1008C0000FB60F9211240BB60F922F933F934F93B5
:1008D0005F936F937F938F939F93AF93BF93EF93A8
:1008E000FF9380E392E08BDDFF91EF91BF91AF9199
:1008F0009F918F917F916F915F914F913F912F9138
:100900000F900BBE0F900FBE0F901F9018951F9267
:100910000F920FB60F9211240BB60F922F938F9355
:100920009F93EF93FF93E0914002F0914102808109
:10093000E0914602F091470282FD1DC090818091B6
:1009400049028F5F8F7320914A02821741F0E09134
:100950004902F0E0E05DFD4F958F80934902FF91E1
:10096000EF919F918F912F910F900BBE0F900FBE23
:100970000F901F9018958081F2CFE0E3F2E0138290
:10098000128288EE93E0A0E0B0E084839583A68392
:10099000B78384E192E09183808385EC90E0958732
:1009A000848784EC90E09787868780EC90E0918B39
:1009B000808B81EC90E0938B828B82EC90E0958B26
:1009C000848B86EC90E0978B868B118E128E138E23
:1009D000148E82E290E09093D4028093D302EDECE7
:1009E000F2E084E291E09583848380E291E0918358
:1009F000808381E291E0938382830895CF93DF9394
:100A0000CDB7DEB7A1970FB6F894DEBF0FBECDBF4E
:100A1000789484B5826084BD84B5816084BD85B5D9
:100A2000826085BD85B5816085BD80916E008160E5
:100A300080936E001092810080918100826080938B
:100A4000810080918100816080938100809180008D
:100A50008160809380008091B10084608093B100B8
:100A60008091B00081608093B0008091910082609D
:100A7000809391008091910081608093910080919A
:100A800090008160809390008091A10082608093AB
:100A9000A1008091A10081608093A1008091A000BD
:100AA00081608093A0008091210182608093210168
:100AB00080912101816080932101809120018160DA
:100AC0008093200180917A00846080937A008091E5
:100AD0007A00826080937A0080917A0081608093AE
:100AE0007A0080917A00806880937A001092C10029
:100AF0000BE811E0F801249155E4E52E51E0F52EC4
:100B0000F70184918823C9F090E0880F991FFC01B8
:100B1000E250FF4FA591B491FC01EC51FF4F45917C
:100B200054919FB7F8943C91822F809583238C93A6
:100B3000FA018081282B20839FBF87E891E0909362
:100B4000090280930802809169008F7C8062809303
:100B50006900EA9A8CEF81B988EF82B9E09140028E
:100B6000F091410282E08083E0913C02F0913D02ED
:100B70001082E0913E02F0913F0280E1808310926A
:100B80004802E0914402F091450286E08083E091C2
:100B90004202F0914302808180618083E0914202B1
:100BA000F0914302808188608083E0914202F0915D
:100BB0004302808180688083E0914202F091430289
:100BC00080818F7D8083E091D302F091D402808177
:100BD000846080836AE070E080E090E068DBE09110
:100BE000D302F091D40280818B7F8083E091CD028B
:100BF000F091CE021082E091CF02F091D00287E016
:100C0000808391EDA92E91E0B92E24E0922E3AE056
:100C1000432E512C612C712C809126028823D9F00F
:100C200062E370E080E090E042DBF5018491F8013E
:100C30002491F7019491911154C0E091D302F09165
:100C4000D40280818925808366E970E080E090E0AD
:100C50002EDB1092260264E670E080E090E027DB55
:100C60009FB78FB78F778FBFE091D102F091D202FB
:100C7000208131819FBF50E040E019A26E01F1E276
:100C8000CF0ED11CCA01B901A30192019DD0605DB4
:100C9000F60162936F01211531054105510591F768
:100CA000309759F001900020E9F73197AF014C19C6
:100CB0005D09B60180E392E02FDB42E050E062E2A2
:100CC00072E080E392E028DB9FB78FB78F778FBF0A
:100CD000E091D102F091D202118210829FBF1CDC00
:100CE0009BCF882309F181508231F0F4E82FF0E0A6
:100CF0008827E358F94F8F4F89C0A906AD068F06A4
:100D0000A106A5069406B006B606BA06C006C40635
:100D1000C806CE06D2069406D606DC06E00680910A
:100D200080008F7780938000E92FF0E0EE0FFF1FA7
:100D3000E85EFE4FA591B4918C91282309F47DCFF4
:100D400083CF809180008F7DEDCF80918000877F61
:100D5000E9CF84B58F7784BDE7CF84B58F7DFBCF96
:100D60008091B0008F778093B000DECF8091B0008B
:100D70008F7DF9CF809190008F7780939000D4CFB2
:100D8000809190008F7DF9CF80919000877FF5CF83
:100D90008091A0008F778093A000C6CF8091A000A3
:100DA0008F7DF9CF8091A000877FF5CF80912001C2
:100DB0008F7780932001B8CF809120018F7DF9CF6C
:100DC00080912001877FF5CFA1E21A2EAA1BBB1BC1
:100DD000FD010DC0AA1FBB1FEE1FFF1FA217B30707
:100DE000E407F50720F0A21BB30BE40BF50B661F1D
:100DF000771F881F991F1A9469F7609570958095E1
:100E000090959B01AC01BD01CF010895EE0FFF1F2E
:100E1000881F8BBF0790F691E02D1994F894FFCFAF
:100E20008B018B018B018B018B018B018B018B0162
:100E30000000000021028C01B9016D02EA01C80125
:060E4000DC010D0A0000B8
:00000001FF
